{
	"data": {
		"bytecode": {
			"linkReferences": {},
			"object": "6080604052348015600e575f80fd5b5061131c8061001c5f395ff3fe608060405234801561000f575f80fd5b506004361061009c575f3560e01c8063473d7d2811610064578063473d7d2814610144578063758db588146101625780638da5cb5b1461017e578063c755624a1461019c578063d37b5294146101b85761009c565b806326e78669146100a05780632799276d146100be57806327e9f294146100dc5780633e3786db146100f857806341c8a4a114610114575b5f80fd5b6100a86101e8565b6040516100b591906109b7565b60405180910390f35b6100c66102f7565b6040516100d391906109ef565b60405180910390f35b6100f660048036038101906100f19190610b45565b6102fd565b005b610112600480360381019061010d9190610be6565b61036d565b005b61012e60048036038101906101299190610c6a565b61052a565b60405161013b9190610cf0565b60405180910390f35b61014c6105db565b6040516101599190610d2a565b60405180910390f35b61017c60048036038101906101779190610d43565b6105ed565b005b6101866106a6565b6040516101939190610cf0565b60405180910390f35b6101b660048036038101906101b19190610d98565b610731565b005b6101d260048036038101906101cd9190610dc3565b61074d565b6040516101df9190610cf0565b60405180910390f35b606060045f3373ffffffffffffffffffffffffffffffffffffffff1673ffffffffffffffffffffffffffffffffffffffff1681526020019081526020015f20805480602002602001604051908101604052809291908181526020015f905b828210156102ee578382905f5260205f2001805461026390610e1b565b80601f016020809104026020016040519081016040528092919081815260200182805461028f90610e1b565b80156102da5780601f106102b1576101008083540402835291602001916102da565b820191905f5260205f20905b8154815290600101906020018083116102bd57829003601f168201915b505050505081526020019060010190610246565b50505050905090565b60015481565b60045f3373ffffffffffffffffffffffffffffffffffffffff1673ffffffffffffffffffffffffffffffffffffffff1681526020019081526020015f2081908060018154018082558091505060019003905f5260205f20015f9091909190915090816103699190610fe8565b5050565b5f805b60045f3373ffffffffffffffffffffffffffffffffffffffff1673ffffffffffffffffffffffffffffffffffffffff1681526020019081526020015f208054905081101561047757826040516020016103c991906110f1565b6040516020818303038152906040528051906020012060045f3373ffffffffffffffffffffffffffffffffffffffff1673ffffffffffffffffffffffffffffffffffffffff1681526020019081526020015f20828154811061042e5761042d611107565b5b905f5260205f200160405160200161044691906111b4565b604051602081830303815290604052805190602001200361046a5760019150610477565b8080600101915050610370565b50806104b8576040517f08c379a00000000000000000000000000000000000000000000000000000000081526004016104af9061123a565b60405180910390fd5b60045f8473ffffffffffffffffffffffffffffffffffffffff1673ffffffffffffffffffffffffffffffffffffffff1681526020019081526020015f2082908060018154018082558091505060019003905f5260205f20015f9091909190915090816105249190610fe8565b50505050565b6004602052815f5260405f208181548110610543575f80fd5b905f5260205f20015f9150915050805461055c90610e1b565b80601f016020809104026020016040519081016040528092919081815260200182805461058890610e1b565b80156105d35780601f106105aa576101008083540402835291602001916105d3565b820191905f5260205f20905b8154815290600101906020018083116105b657829003601f168201915b505050505081565b60025f9054906101000a900460ff1681565b3373ffffffffffffffffffffffffffffffffffffffff168173ffffffffffffffffffffffffffffffffffffffff161461065b576040517f08c379a0000000000000000000000000000000000000000000000000000000008152600401610652906112c8565b60405180910390fd5b60045f8273ffffffffffffffffffffffffffffffffffffffff1673ffffffffffffffffffffffffffffffffffffffff1681526020019081526020015f205f6106a391906107f3565b50565b5f80546106b290610e1b565b80601f01602080910402602001604051908101604052809291908181526020018280546106de90610e1b565b80156107295780601f1061070057610100808354040283529160200191610729565b820191905f5260205f20905b81548152906001019060200180831161070c57829003601f168201915b505050505081565b8060025f6101000a81548160ff02191690831515021790555050565b6003818154811061075c575f80fd5b905f5260205f20015f91509050805461077490610e1b565b80601f01602080910402602001604051908101604052809291908181526020018280546107a090610e1b565b80156107eb5780601f106107c2576101008083540402835291602001916107eb565b820191905f5260205f20905b8154815290600101906020018083116107ce57829003601f168201915b505050505081565b5080545f8255905f5260205f209081019061080e9190610811565b50565b5b80821115610830575f81816108279190610834565b50600101610812565b5090565b50805461084090610e1b565b5f825580601f10610851575061086e565b601f0160209004905f5260205f209081019061086d9190610871565b5b50565b5b80821115610888575f815f905550600101610872565b5090565b5f81519050919050565b5f82825260208201905092915050565b5f819050602082019050919050565b5f81519050919050565b5f82825260208201905092915050565b8281835e5f83830152505050565b5f601f19601f8301169050919050565b5f6108f7826108b5565b61090181856108bf565b93506109118185602086016108cf565b61091a816108dd565b840191505092915050565b5f61093083836108ed565b905092915050565b5f602082019050919050565b5f61094e8261088c565b6109588185610896565b93508360208202850161096a856108a6565b805f5b858110156109a557848403895281516109868582610925565b945061099183610938565b925060208a0199505060018101905061096d565b50829750879550505050505092915050565b5f6020820190508181035f8301526109cf8184610944565b905092915050565b5f819050919050565b6109e9816109d7565b82525050565b5f602082019050610a025f8301846109e0565b92915050565b5f604051905090565b5f80fd5b5f80fd5b5f80fd5b5f80fd5b7f4e487b71000000000000000000000000000000000000000000000000000000005f52604160045260245ffd5b610a57826108dd565b810181811067ffffffffffffffff82111715610a7657610a75610a21565b5b80604052505050565b5f610a88610a08565b9050610a948282610a4e565b919050565b5f67ffffffffffffffff821115610ab357610ab2610a21565b5b610abc826108dd565b9050602081019050919050565b828183375f83830152505050565b5f610ae9610ae484610a99565b610a7f565b905082815260208101848484011115610b0557610b04610a1d565b5b610b10848285610ac9565b509392505050565b5f82601f830112610b2c57610b2b610a19565b5b8135610b3c848260208601610ad7565b91505092915050565b5f60208284031215610b5a57610b59610a11565b5b5f82013567ffffffffffffffff811115610b7757610b76610a15565b5b610b8384828501610b18565b91505092915050565b5f73ffffffffffffffffffffffffffffffffffffffff82169050919050565b5f610bb582610b8c565b9050919050565b610bc581610bab565b8114610bcf575f80fd5b50565b5f81359050610be081610bbc565b92915050565b5f8060408385031215610bfc57610bfb610a11565b5b5f610c0985828601610bd2565b925050602083013567ffffffffffffffff811115610c2a57610c29610a15565b5b610c3685828601610b18565b9150509250929050565b610c49816109d7565b8114610c53575f80fd5b50565b5f81359050610c6481610c40565b92915050565b5f8060408385031215610c8057610c7f610a11565b5b5f610c8d85828601610bd2565b9250506020610c9e85828601610c56565b9150509250929050565b5f82825260208201905092915050565b5f610cc2826108b5565b610ccc8185610ca8565b9350610cdc8185602086016108cf565b610ce5816108dd565b840191505092915050565b5f6020820190508181035f830152610d088184610cb8565b905092915050565b5f8115159050919050565b610d2481610d10565b82525050565b5f602082019050610d3d5f830184610d1b565b92915050565b5f60208284031215610d5857610d57610a11565b5b5f610d6584828501610bd2565b91505092915050565b610d7781610d10565b8114610d81575f80fd5b50565b5f81359050610d9281610d6e565b92915050565b5f60208284031215610dad57610dac610a11565b5b5f610dba84828501610d84565b91505092915050565b5f60208284031215610dd857610dd7610a11565b5b5f610de584828501610c56565b91505092915050565b7f4e487b71000000000000000000000000000000000000000000000000000000005f52602260045260245ffd5b5f6002820490506001821680610e3257607f821691505b602082108103610e4557610e44610dee565b5b50919050565b5f819050815f5260205f209050919050565b5f6020601f8301049050919050565b5f82821b905092915050565b5f60088302610ea77fffffffffffffffffffffffffffffffffffffffffffffffffffffffffffffffff82610e6c565b610eb18683610e6c565b95508019841693508086168417925050509392505050565b5f819050919050565b5f610eec610ee7610ee2846109d7565b610ec9565b6109d7565b9050919050565b5f819050919050565b610f0583610ed2565b610f19610f1182610ef3565b848454610e78565b825550505050565b5f90565b610f2d610f21565b610f38818484610efc565b505050565b5b81811015610f5b57610f505f82610f25565b600181019050610f3e565b5050565b601f821115610fa057610f7181610e4b565b610f7a84610e5d565b81016020851015610f89578190505b610f9d610f9585610e5d565b830182610f3d565b50505b505050565b5f82821c905092915050565b5f610fc05f1984600802610fa5565b1980831691505092915050565b5f610fd88383610fb1565b9150826002028217905092915050565b610ff1826108b5565b67ffffffffffffffff81111561100a57611009610a21565b5b6110148254610e1b565b61101f828285610f5f565b5f60209050601f831160018114611050575f841561103e578287015190505b6110488582610fcd565b8655506110af565b601f19841661105e86610e4b565b5f5b8281101561108557848901518255600182019150602085019450602081019050611060565b868310156110a2578489015161109e601f891682610fb1565b8355505b6001600288020188555050505b505050505050565b5f81905092915050565b5f6110cb826108b5565b6110d581856110b7565b93506110e58185602086016108cf565b80840191505092915050565b5f6110fc82846110c1565b915081905092915050565b7f4e487b71000000000000000000000000000000000000000000000000000000005f52603260045260245ffd5b5f815461114081610e1b565b61114a81866110b7565b9450600182165f81146111645760018114611179576111ab565b60ff19831686528115158202860193506111ab565b61118285610e4b565b5f5b838110156111a357815481890152600182019150602081019050611184565b838801955050505b50505092915050565b5f6111bf8284611134565b915081905092915050565b7f4974656d20646f6573206e6f7420657869737420696e20796f757220776973685f8201527f206c6973742e0000000000000000000000000000000000000000000000000000602082015250565b5f611224602683610ca8565b915061122f826111ca565b604082019050919050565b5f6020820190508181035f83015261125181611218565b9050919050565b7f596f752063616e206f6e6c792064656c65746520796f7572206f776e207769735f8201527f68206c6973742e00000000000000000000000000000000000000000000000000602082015250565b5f6112b2602783610ca8565b91506112bd82611258565b604082019050919050565b5f6020820190508181035f8301526112df816112a6565b905091905056fea2646970667358221220b22372717bea1a2ac2551fee4a7e3e29014bf670bff47737db75ddf4f8ed60af64736f6c634300081a0033",
			"opcodes": "PUSH1 0x80 PUSH1 0x40 MSTORE CALLVALUE DUP1 ISZERO PUSH1 0xE JUMPI PUSH0 DUP1 REVERT JUMPDEST POP PUSH2 0x131C DUP1 PUSH2 0x1C PUSH0 CODECOPY PUSH0 RETURN INVALID PUSH1 0x80 PUSH1 0x40 MSTORE CALLVALUE DUP1 ISZERO PUSH2 0xF JUMPI PUSH0 DUP1 REVERT JUMPDEST POP PUSH1 0x4 CALLDATASIZE LT PUSH2 0x9C JUMPI PUSH0 CALLDATALOAD PUSH1 0xE0 SHR DUP1 PUSH4 0x473D7D28 GT PUSH2 0x64 JUMPI DUP1 PUSH4 0x473D7D28 EQ PUSH2 0x144 JUMPI DUP1 PUSH4 0x758DB588 EQ PUSH2 0x162 JUMPI DUP1 PUSH4 0x8DA5CB5B EQ PUSH2 0x17E JUMPI DUP1 PUSH4 0xC755624A EQ PUSH2 0x19C JUMPI DUP1 PUSH4 0xD37B5294 EQ PUSH2 0x1B8 JUMPI PUSH2 0x9C JUMP JUMPDEST DUP1 PUSH4 0x26E78669 EQ PUSH2 0xA0 JUMPI DUP1 PUSH4 0x2799276D EQ PUSH2 0xBE JUMPI DUP1 PUSH4 0x27E9F294 EQ PUSH2 0xDC JUMPI DUP1 PUSH4 0x3E3786DB EQ PUSH2 0xF8 JUMPI DUP1 PUSH4 0x41C8A4A1 EQ PUSH2 0x114 JUMPI JUMPDEST PUSH0 DUP1 REVERT JUMPDEST PUSH2 0xA8 PUSH2 0x1E8 JUMP JUMPDEST PUSH1 0x40 MLOAD PUSH2 0xB5 SWAP2 SWAP1 PUSH2 0x9B7 JUMP JUMPDEST PUSH1 0x40 MLOAD DUP1 SWAP2 SUB SWAP1 RETURN JUMPDEST PUSH2 0xC6 PUSH2 0x2F7 JUMP JUMPDEST PUSH1 0x40 MLOAD PUSH2 0xD3 SWAP2 SWAP1 PUSH2 0x9EF JUMP JUMPDEST PUSH1 0x40 MLOAD DUP1 SWAP2 SUB SWAP1 RETURN JUMPDEST PUSH2 0xF6 PUSH1 0x4 DUP1 CALLDATASIZE SUB DUP2 ADD SWAP1 PUSH2 0xF1 SWAP2 SWAP1 PUSH2 0xB45 JUMP JUMPDEST PUSH2 0x2FD JUMP JUMPDEST STOP JUMPDEST PUSH2 0x112 PUSH1 0x4 DUP1 CALLDATASIZE SUB DUP2 ADD SWAP1 PUSH2 0x10D SWAP2 SWAP1 PUSH2 0xBE6 JUMP JUMPDEST PUSH2 0x36D JUMP JUMPDEST STOP JUMPDEST PUSH2 0x12E PUSH1 0x4 DUP1 CALLDATASIZE SUB DUP2 ADD SWAP1 PUSH2 0x129 SWAP2 SWAP1 PUSH2 0xC6A JUMP JUMPDEST PUSH2 0x52A JUMP JUMPDEST PUSH1 0x40 MLOAD PUSH2 0x13B SWAP2 SWAP1 PUSH2 0xCF0 JUMP JUMPDEST PUSH1 0x40 MLOAD DUP1 SWAP2 SUB SWAP1 RETURN JUMPDEST PUSH2 0x14C PUSH2 0x5DB JUMP JUMPDEST PUSH1 0x40 MLOAD PUSH2 0x159 SWAP2 SWAP1 PUSH2 0xD2A JUMP JUMPDEST PUSH1 0x40 MLOAD DUP1 SWAP2 SUB SWAP1 RETURN JUMPDEST PUSH2 0x17C PUSH1 0x4 DUP1 CALLDATASIZE SUB DUP2 ADD SWAP1 PUSH2 0x177 SWAP2 SWAP1 PUSH2 0xD43 JUMP JUMPDEST PUSH2 0x5ED JUMP JUMPDEST STOP JUMPDEST PUSH2 0x186 PUSH2 0x6A6 JUMP JUMPDEST PUSH1 0x40 MLOAD PUSH2 0x193 SWAP2 SWAP1 PUSH2 0xCF0 JUMP JUMPDEST PUSH1 0x40 MLOAD DUP1 SWAP2 SUB SWAP1 RETURN JUMPDEST PUSH2 0x1B6 PUSH1 0x4 DUP1 CALLDATASIZE SUB DUP2 ADD SWAP1 PUSH2 0x1B1 SWAP2 SWAP1 PUSH2 0xD98 JUMP JUMPDEST PUSH2 0x731 JUMP JUMPDEST STOP JUMPDEST PUSH2 0x1D2 PUSH1 0x4 DUP1 CALLDATASIZE SUB DUP2 ADD SWAP1 PUSH2 0x1CD SWAP2 SWAP1 PUSH2 0xDC3 JUMP JUMPDEST PUSH2 0x74D JUMP JUMPDEST PUSH1 0x40 MLOAD PUSH2 0x1DF SWAP2 SWAP1 PUSH2 0xCF0 JUMP JUMPDEST PUSH1 0x40 MLOAD DUP1 SWAP2 SUB SWAP1 RETURN JUMPDEST PUSH1 0x60 PUSH1 0x4 PUSH0 CALLER PUSH20 0xFFFFFFFFFFFFFFFFFFFFFFFFFFFFFFFFFFFFFFFF AND PUSH20 0xFFFFFFFFFFFFFFFFFFFFFFFFFFFFFFFFFFFFFFFF AND DUP2 MSTORE PUSH1 0x20 ADD SWAP1 DUP2 MSTORE PUSH1 0x20 ADD PUSH0 KECCAK256 DUP1 SLOAD DUP1 PUSH1 0x20 MUL PUSH1 0x20 ADD PUSH1 0x40 MLOAD SWAP1 DUP2 ADD PUSH1 0x40 MSTORE DUP1 SWAP3 SWAP2 SWAP1 DUP2 DUP2 MSTORE PUSH1 0x20 ADD PUSH0 SWAP1 JUMPDEST DUP3 DUP3 LT ISZERO PUSH2 0x2EE JUMPI DUP4 DUP3 SWAP1 PUSH0 MSTORE PUSH1 0x20 PUSH0 KECCAK256 ADD DUP1 SLOAD PUSH2 0x263 SWAP1 PUSH2 0xE1B JUMP JUMPDEST DUP1 PUSH1 0x1F ADD PUSH1 0x20 DUP1 SWAP2 DIV MUL PUSH1 0x20 ADD PUSH1 0x40 MLOAD SWAP1 DUP2 ADD PUSH1 0x40 MSTORE DUP1 SWAP3 SWAP2 SWAP1 DUP2 DUP2 MSTORE PUSH1 0x20 ADD DUP3 DUP1 SLOAD PUSH2 0x28F SWAP1 PUSH2 0xE1B JUMP JUMPDEST DUP1 ISZERO PUSH2 0x2DA JUMPI DUP1 PUSH1 0x1F LT PUSH2 0x2B1 JUMPI PUSH2 0x100 DUP1 DUP4 SLOAD DIV MUL DUP4 MSTORE SWAP2 PUSH1 0x20 ADD SWAP2 PUSH2 0x2DA JUMP JUMPDEST DUP3 ADD SWAP2 SWAP1 PUSH0 MSTORE PUSH1 0x20 PUSH0 KECCAK256 SWAP1 JUMPDEST DUP2 SLOAD DUP2 MSTORE SWAP1 PUSH1 0x1 ADD SWAP1 PUSH1 0x20 ADD DUP1 DUP4 GT PUSH2 0x2BD JUMPI DUP3 SWAP1 SUB PUSH1 0x1F AND DUP3 ADD SWAP2 JUMPDEST POP POP POP POP POP DUP2 MSTORE PUSH1 0x20 ADD SWAP1 PUSH1 0x1 ADD SWAP1 PUSH2 0x246 JUMP JUMPDEST POP POP POP POP SWAP1 POP SWAP1 JUMP JUMPDEST PUSH1 0x1 SLOAD DUP2 JUMP JUMPDEST PUSH1 0x4 PUSH0 CALLER PUSH20 0xFFFFFFFFFFFFFFFFFFFFFFFFFFFFFFFFFFFFFFFF AND PUSH20 0xFFFFFFFFFFFFFFFFFFFFFFFFFFFFFFFFFFFFFFFF AND DUP2 MSTORE PUSH1 0x20 ADD SWAP1 DUP2 MSTORE PUSH1 0x20 ADD PUSH0 KECCAK256 DUP2 SWAP1 DUP1 PUSH1 0x1 DUP2 SLOAD ADD DUP1 DUP3 SSTORE DUP1 SWAP2 POP POP PUSH1 0x1 SWAP1 SUB SWAP1 PUSH0 MSTORE PUSH1 0x20 PUSH0 KECCAK256 ADD PUSH0 SWAP1 SWAP2 SWAP1 SWAP2 SWAP1 SWAP2 POP SWAP1 DUP2 PUSH2 0x369 SWAP2 SWAP1 PUSH2 0xFE8 JUMP JUMPDEST POP POP JUMP JUMPDEST PUSH0 DUP1 JUMPDEST PUSH1 0x4 PUSH0 CALLER PUSH20 0xFFFFFFFFFFFFFFFFFFFFFFFFFFFFFFFFFFFFFFFF AND PUSH20 0xFFFFFFFFFFFFFFFFFFFFFFFFFFFFFFFFFFFFFFFF AND DUP2 MSTORE PUSH1 0x20 ADD SWAP1 DUP2 MSTORE PUSH1 0x20 ADD PUSH0 KECCAK256 DUP1 SLOAD SWAP1 POP DUP2 LT ISZERO PUSH2 0x477 JUMPI DUP3 PUSH1 0x40 MLOAD PUSH1 0x20 ADD PUSH2 0x3C9 SWAP2 SWAP1 PUSH2 0x10F1 JUMP JUMPDEST PUSH1 0x40 MLOAD PUSH1 0x20 DUP2 DUP4 SUB SUB DUP2 MSTORE SWAP1 PUSH1 0x40 MSTORE DUP1 MLOAD SWAP1 PUSH1 0x20 ADD KECCAK256 PUSH1 0x4 PUSH0 CALLER PUSH20 0xFFFFFFFFFFFFFFFFFFFFFFFFFFFFFFFFFFFFFFFF AND PUSH20 0xFFFFFFFFFFFFFFFFFFFFFFFFFFFFFFFFFFFFFFFF AND DUP2 MSTORE PUSH1 0x20 ADD SWAP1 DUP2 MSTORE PUSH1 0x20 ADD PUSH0 KECCAK256 DUP3 DUP2 SLOAD DUP2 LT PUSH2 0x42E JUMPI PUSH2 0x42D PUSH2 0x1107 JUMP JUMPDEST JUMPDEST SWAP1 PUSH0 MSTORE PUSH1 0x20 PUSH0 KECCAK256 ADD PUSH1 0x40 MLOAD PUSH1 0x20 ADD PUSH2 0x446 SWAP2 SWAP1 PUSH2 0x11B4 JUMP JUMPDEST PUSH1 0x40 MLOAD PUSH1 0x20 DUP2 DUP4 SUB SUB DUP2 MSTORE SWAP1 PUSH1 0x40 MSTORE DUP1 MLOAD SWAP1 PUSH1 0x20 ADD KECCAK256 SUB PUSH2 0x46A JUMPI PUSH1 0x1 SWAP2 POP PUSH2 0x477 JUMP JUMPDEST DUP1 DUP1 PUSH1 0x1 ADD SWAP2 POP POP PUSH2 0x370 JUMP JUMPDEST POP DUP1 PUSH2 0x4B8 JUMPI PUSH1 0x40 MLOAD PUSH32 0x8C379A000000000000000000000000000000000000000000000000000000000 DUP2 MSTORE PUSH1 0x4 ADD PUSH2 0x4AF SWAP1 PUSH2 0x123A JUMP JUMPDEST PUSH1 0x40 MLOAD DUP1 SWAP2 SUB SWAP1 REVERT JUMPDEST PUSH1 0x4 PUSH0 DUP5 PUSH20 0xFFFFFFFFFFFFFFFFFFFFFFFFFFFFFFFFFFFFFFFF AND PUSH20 0xFFFFFFFFFFFFFFFFFFFFFFFFFFFFFFFFFFFFFFFF AND DUP2 MSTORE PUSH1 0x20 ADD SWAP1 DUP2 MSTORE PUSH1 0x20 ADD PUSH0 KECCAK256 DUP3 SWAP1 DUP1 PUSH1 0x1 DUP2 SLOAD ADD DUP1 DUP3 SSTORE DUP1 SWAP2 POP POP PUSH1 0x1 SWAP1 SUB SWAP1 PUSH0 MSTORE PUSH1 0x20 PUSH0 KECCAK256 ADD PUSH0 SWAP1 SWAP2 SWAP1 SWAP2 SWAP1 SWAP2 POP SWAP1 DUP2 PUSH2 0x524 SWAP2 SWAP1 PUSH2 0xFE8 JUMP JUMPDEST POP POP POP POP JUMP JUMPDEST PUSH1 0x4 PUSH1 0x20 MSTORE DUP2 PUSH0 MSTORE PUSH1 0x40 PUSH0 KECCAK256 DUP2 DUP2 SLOAD DUP2 LT PUSH2 0x543 JUMPI PUSH0 DUP1 REVERT JUMPDEST SWAP1 PUSH0 MSTORE PUSH1 0x20 PUSH0 KECCAK256 ADD PUSH0 SWAP2 POP SWAP2 POP POP DUP1 SLOAD PUSH2 0x55C SWAP1 PUSH2 0xE1B JUMP JUMPDEST DUP1 PUSH1 0x1F ADD PUSH1 0x20 DUP1 SWAP2 DIV MUL PUSH1 0x20 ADD PUSH1 0x40 MLOAD SWAP1 DUP2 ADD PUSH1 0x40 MSTORE DUP1 SWAP3 SWAP2 SWAP1 DUP2 DUP2 MSTORE PUSH1 0x20 ADD DUP3 DUP1 SLOAD PUSH2 0x588 SWAP1 PUSH2 0xE1B JUMP JUMPDEST DUP1 ISZERO PUSH2 0x5D3 JUMPI DUP1 PUSH1 0x1F LT PUSH2 0x5AA JUMPI PUSH2 0x100 DUP1 DUP4 SLOAD DIV MUL DUP4 MSTORE SWAP2 PUSH1 0x20 ADD SWAP2 PUSH2 0x5D3 JUMP JUMPDEST DUP3 ADD SWAP2 SWAP1 PUSH0 MSTORE PUSH1 0x20 PUSH0 KECCAK256 SWAP1 JUMPDEST DUP2 SLOAD DUP2 MSTORE SWAP1 PUSH1 0x1 ADD SWAP1 PUSH1 0x20 ADD DUP1 DUP4 GT PUSH2 0x5B6 JUMPI DUP3 SWAP1 SUB PUSH1 0x1F AND DUP3 ADD SWAP2 JUMPDEST POP POP POP POP POP DUP2 JUMP JUMPDEST PUSH1 0x2 PUSH0 SWAP1 SLOAD SWAP1 PUSH2 0x100 EXP SWAP1 DIV PUSH1 0xFF AND DUP2 JUMP JUMPDEST CALLER PUSH20 0xFFFFFFFFFFFFFFFFFFFFFFFFFFFFFFFFFFFFFFFF AND DUP2 PUSH20 0xFFFFFFFFFFFFFFFFFFFFFFFFFFFFFFFFFFFFFFFF AND EQ PUSH2 0x65B JUMPI PUSH1 0x40 MLOAD PUSH32 0x8C379A000000000000000000000000000000000000000000000000000000000 DUP2 MSTORE PUSH1 0x4 ADD PUSH2 0x652 SWAP1 PUSH2 0x12C8 JUMP JUMPDEST PUSH1 0x40 MLOAD DUP1 SWAP2 SUB SWAP1 REVERT JUMPDEST PUSH1 0x4 PUSH0 DUP3 PUSH20 0xFFFFFFFFFFFFFFFFFFFFFFFFFFFFFFFFFFFFFFFF AND PUSH20 0xFFFFFFFFFFFFFFFFFFFFFFFFFFFFFFFFFFFFFFFF AND DUP2 MSTORE PUSH1 0x20 ADD SWAP1 DUP2 MSTORE PUSH1 0x20 ADD PUSH0 KECCAK256 PUSH0 PUSH2 0x6A3 SWAP2 SWAP1 PUSH2 0x7F3 JUMP JUMPDEST POP JUMP JUMPDEST PUSH0 DUP1 SLOAD PUSH2 0x6B2 SWAP1 PUSH2 0xE1B JUMP JUMPDEST DUP1 PUSH1 0x1F ADD PUSH1 0x20 DUP1 SWAP2 DIV MUL PUSH1 0x20 ADD PUSH1 0x40 MLOAD SWAP1 DUP2 ADD PUSH1 0x40 MSTORE DUP1 SWAP3 SWAP2 SWAP1 DUP2 DUP2 MSTORE PUSH1 0x20 ADD DUP3 DUP1 SLOAD PUSH2 0x6DE SWAP1 PUSH2 0xE1B JUMP JUMPDEST DUP1 ISZERO PUSH2 0x729 JUMPI DUP1 PUSH1 0x1F LT PUSH2 0x700 JUMPI PUSH2 0x100 DUP1 DUP4 SLOAD DIV MUL DUP4 MSTORE SWAP2 PUSH1 0x20 ADD SWAP2 PUSH2 0x729 JUMP JUMPDEST DUP3 ADD SWAP2 SWAP1 PUSH0 MSTORE PUSH1 0x20 PUSH0 KECCAK256 SWAP1 JUMPDEST DUP2 SLOAD DUP2 MSTORE SWAP1 PUSH1 0x1 ADD SWAP1 PUSH1 0x20 ADD DUP1 DUP4 GT PUSH2 0x70C JUMPI DUP3 SWAP1 SUB PUSH1 0x1F AND DUP3 ADD SWAP2 JUMPDEST POP POP POP POP POP DUP2 JUMP JUMPDEST DUP1 PUSH1 0x2 PUSH0 PUSH2 0x100 EXP DUP2 SLOAD DUP2 PUSH1 0xFF MUL NOT AND SWAP1 DUP4 ISZERO ISZERO MUL OR SWAP1 SSTORE POP POP JUMP JUMPDEST PUSH1 0x3 DUP2 DUP2 SLOAD DUP2 LT PUSH2 0x75C JUMPI PUSH0 DUP1 REVERT JUMPDEST SWAP1 PUSH0 MSTORE PUSH1 0x20 PUSH0 KECCAK256 ADD PUSH0 SWAP2 POP SWAP1 POP DUP1 SLOAD PUSH2 0x774 SWAP1 PUSH2 0xE1B JUMP JUMPDEST DUP1 PUSH1 0x1F ADD PUSH1 0x20 DUP1 SWAP2 DIV MUL PUSH1 0x20 ADD PUSH1 0x40 MLOAD SWAP1 DUP2 ADD PUSH1 0x40 MSTORE DUP1 SWAP3 SWAP2 SWAP1 DUP2 DUP2 MSTORE PUSH1 0x20 ADD DUP3 DUP1 SLOAD PUSH2 0x7A0 SWAP1 PUSH2 0xE1B JUMP JUMPDEST DUP1 ISZERO PUSH2 0x7EB JUMPI DUP1 PUSH1 0x1F LT PUSH2 0x7C2 JUMPI PUSH2 0x100 DUP1 DUP4 SLOAD DIV MUL DUP4 MSTORE SWAP2 PUSH1 0x20 ADD SWAP2 PUSH2 0x7EB JUMP JUMPDEST DUP3 ADD SWAP2 SWAP1 PUSH0 MSTORE PUSH1 0x20 PUSH0 KECCAK256 SWAP1 JUMPDEST DUP2 SLOAD DUP2 MSTORE SWAP1 PUSH1 0x1 ADD SWAP1 PUSH1 0x20 ADD DUP1 DUP4 GT PUSH2 0x7CE JUMPI DUP3 SWAP1 SUB PUSH1 0x1F AND DUP3 ADD SWAP2 JUMPDEST POP POP POP POP POP DUP2 JUMP JUMPDEST POP DUP1 SLOAD PUSH0 DUP3 SSTORE SWAP1 PUSH0 MSTORE PUSH1 0x20 PUSH0 KECCAK256 SWAP1 DUP2 ADD SWAP1 PUSH2 0x80E SWAP2 SWAP1 PUSH2 0x811 JUMP JUMPDEST POP JUMP JUMPDEST JUMPDEST DUP1 DUP3 GT ISZERO PUSH2 0x830 JUMPI PUSH0 DUP2 DUP2 PUSH2 0x827 SWAP2 SWAP1 PUSH2 0x834 JUMP JUMPDEST POP PUSH1 0x1 ADD PUSH2 0x812 JUMP JUMPDEST POP SWAP1 JUMP JUMPDEST POP DUP1 SLOAD PUSH2 0x840 SWAP1 PUSH2 0xE1B JUMP JUMPDEST PUSH0 DUP3 SSTORE DUP1 PUSH1 0x1F LT PUSH2 0x851 JUMPI POP PUSH2 0x86E JUMP JUMPDEST PUSH1 0x1F ADD PUSH1 0x20 SWAP1 DIV SWAP1 PUSH0 MSTORE PUSH1 0x20 PUSH0 KECCAK256 SWAP1 DUP2 ADD SWAP1 PUSH2 0x86D SWAP2 SWAP1 PUSH2 0x871 JUMP JUMPDEST JUMPDEST POP JUMP JUMPDEST JUMPDEST DUP1 DUP3 GT ISZERO PUSH2 0x888 JUMPI PUSH0 DUP2 PUSH0 SWAP1 SSTORE POP PUSH1 0x1 ADD PUSH2 0x872 JUMP JUMPDEST POP SWAP1 JUMP JUMPDEST PUSH0 DUP2 MLOAD SWAP1 POP SWAP2 SWAP1 POP JUMP JUMPDEST PUSH0 DUP3 DUP3 MSTORE PUSH1 0x20 DUP3 ADD SWAP1 POP SWAP3 SWAP2 POP POP JUMP JUMPDEST PUSH0 DUP2 SWAP1 POP PUSH1 0x20 DUP3 ADD SWAP1 POP SWAP2 SWAP1 POP JUMP JUMPDEST PUSH0 DUP2 MLOAD SWAP1 POP SWAP2 SWAP1 POP JUMP JUMPDEST PUSH0 DUP3 DUP3 MSTORE PUSH1 0x20 DUP3 ADD SWAP1 POP SWAP3 SWAP2 POP POP JUMP JUMPDEST DUP3 DUP2 DUP4 MCOPY PUSH0 DUP4 DUP4 ADD MSTORE POP POP POP JUMP JUMPDEST PUSH0 PUSH1 0x1F NOT PUSH1 0x1F DUP4 ADD AND SWAP1 POP SWAP2 SWAP1 POP JUMP JUMPDEST PUSH0 PUSH2 0x8F7 DUP3 PUSH2 0x8B5 JUMP JUMPDEST PUSH2 0x901 DUP2 DUP6 PUSH2 0x8BF JUMP JUMPDEST SWAP4 POP PUSH2 0x911 DUP2 DUP6 PUSH1 0x20 DUP7 ADD PUSH2 0x8CF JUMP JUMPDEST PUSH2 0x91A DUP2 PUSH2 0x8DD JUMP JUMPDEST DUP5 ADD SWAP2 POP POP SWAP3 SWAP2 POP POP JUMP JUMPDEST PUSH0 PUSH2 0x930 DUP4 DUP4 PUSH2 0x8ED JUMP JUMPDEST SWAP1 POP SWAP3 SWAP2 POP POP JUMP JUMPDEST PUSH0 PUSH1 0x20 DUP3 ADD SWAP1 POP SWAP2 SWAP1 POP JUMP JUMPDEST PUSH0 PUSH2 0x94E DUP3 PUSH2 0x88C JUMP JUMPDEST PUSH2 0x958 DUP2 DUP6 PUSH2 0x896 JUMP JUMPDEST SWAP4 POP DUP4 PUSH1 0x20 DUP3 MUL DUP6 ADD PUSH2 0x96A DUP6 PUSH2 0x8A6 JUMP JUMPDEST DUP1 PUSH0 JUMPDEST DUP6 DUP2 LT ISZERO PUSH2 0x9A5 JUMPI DUP5 DUP5 SUB DUP10 MSTORE DUP2 MLOAD PUSH2 0x986 DUP6 DUP3 PUSH2 0x925 JUMP JUMPDEST SWAP5 POP PUSH2 0x991 DUP4 PUSH2 0x938 JUMP JUMPDEST SWAP3 POP PUSH1 0x20 DUP11 ADD SWAP10 POP POP PUSH1 0x1 DUP2 ADD SWAP1 POP PUSH2 0x96D JUMP JUMPDEST POP DUP3 SWAP8 POP DUP8 SWAP6 POP POP POP POP POP POP SWAP3 SWAP2 POP POP JUMP JUMPDEST PUSH0 PUSH1 0x20 DUP3 ADD SWAP1 POP DUP2 DUP2 SUB PUSH0 DUP4 ADD MSTORE PUSH2 0x9CF DUP2 DUP5 PUSH2 0x944 JUMP JUMPDEST SWAP1 POP SWAP3 SWAP2 POP POP JUMP JUMPDEST PUSH0 DUP2 SWAP1 POP SWAP2 SWAP1 POP JUMP JUMPDEST PUSH2 0x9E9 DUP2 PUSH2 0x9D7 JUMP JUMPDEST DUP3 MSTORE POP POP JUMP JUMPDEST PUSH0 PUSH1 0x20 DUP3 ADD SWAP1 POP PUSH2 0xA02 PUSH0 DUP4 ADD DUP5 PUSH2 0x9E0 JUMP JUMPDEST SWAP3 SWAP2 POP POP JUMP JUMPDEST PUSH0 PUSH1 0x40 MLOAD SWAP1 POP SWAP1 JUMP JUMPDEST PUSH0 DUP1 REVERT JUMPDEST PUSH0 DUP1 REVERT JUMPDEST PUSH0 DUP1 REVERT JUMPDEST PUSH0 DUP1 REVERT JUMPDEST PUSH32 0x4E487B7100000000000000000000000000000000000000000000000000000000 PUSH0 MSTORE PUSH1 0x41 PUSH1 0x4 MSTORE PUSH1 0x24 PUSH0 REVERT JUMPDEST PUSH2 0xA57 DUP3 PUSH2 0x8DD JUMP JUMPDEST DUP2 ADD DUP2 DUP2 LT PUSH8 0xFFFFFFFFFFFFFFFF DUP3 GT OR ISZERO PUSH2 0xA76 JUMPI PUSH2 0xA75 PUSH2 0xA21 JUMP JUMPDEST JUMPDEST DUP1 PUSH1 0x40 MSTORE POP POP POP JUMP JUMPDEST PUSH0 PUSH2 0xA88 PUSH2 0xA08 JUMP JUMPDEST SWAP1 POP PUSH2 0xA94 DUP3 DUP3 PUSH2 0xA4E JUMP JUMPDEST SWAP2 SWAP1 POP JUMP JUMPDEST PUSH0 PUSH8 0xFFFFFFFFFFFFFFFF DUP3 GT ISZERO PUSH2 0xAB3 JUMPI PUSH2 0xAB2 PUSH2 0xA21 JUMP JUMPDEST JUMPDEST PUSH2 0xABC DUP3 PUSH2 0x8DD JUMP JUMPDEST SWAP1 POP PUSH1 0x20 DUP2 ADD SWAP1 POP SWAP2 SWAP1 POP JUMP JUMPDEST DUP3 DUP2 DUP4 CALLDATACOPY PUSH0 DUP4 DUP4 ADD MSTORE POP POP POP JUMP JUMPDEST PUSH0 PUSH2 0xAE9 PUSH2 0xAE4 DUP5 PUSH2 0xA99 JUMP JUMPDEST PUSH2 0xA7F JUMP JUMPDEST SWAP1 POP DUP3 DUP2 MSTORE PUSH1 0x20 DUP2 ADD DUP5 DUP5 DUP5 ADD GT ISZERO PUSH2 0xB05 JUMPI PUSH2 0xB04 PUSH2 0xA1D JUMP JUMPDEST JUMPDEST PUSH2 0xB10 DUP5 DUP3 DUP6 PUSH2 0xAC9 JUMP JUMPDEST POP SWAP4 SWAP3 POP POP POP JUMP JUMPDEST PUSH0 DUP3 PUSH1 0x1F DUP4 ADD SLT PUSH2 0xB2C JUMPI PUSH2 0xB2B PUSH2 0xA19 JUMP JUMPDEST JUMPDEST DUP2 CALLDATALOAD PUSH2 0xB3C DUP5 DUP3 PUSH1 0x20 DUP7 ADD PUSH2 0xAD7 JUMP JUMPDEST SWAP2 POP POP SWAP3 SWAP2 POP POP JUMP JUMPDEST PUSH0 PUSH1 0x20 DUP3 DUP5 SUB SLT ISZERO PUSH2 0xB5A JUMPI PUSH2 0xB59 PUSH2 0xA11 JUMP JUMPDEST JUMPDEST PUSH0 DUP3 ADD CALLDATALOAD PUSH8 0xFFFFFFFFFFFFFFFF DUP2 GT ISZERO PUSH2 0xB77 JUMPI PUSH2 0xB76 PUSH2 0xA15 JUMP JUMPDEST JUMPDEST PUSH2 0xB83 DUP5 DUP3 DUP6 ADD PUSH2 0xB18 JUMP JUMPDEST SWAP2 POP POP SWAP3 SWAP2 POP POP JUMP JUMPDEST PUSH0 PUSH20 0xFFFFFFFFFFFFFFFFFFFFFFFFFFFFFFFFFFFFFFFF DUP3 AND SWAP1 POP SWAP2 SWAP1 POP JUMP JUMPDEST PUSH0 PUSH2 0xBB5 DUP3 PUSH2 0xB8C JUMP JUMPDEST SWAP1 POP SWAP2 SWAP1 POP JUMP JUMPDEST PUSH2 0xBC5 DUP2 PUSH2 0xBAB JUMP JUMPDEST DUP2 EQ PUSH2 0xBCF JUMPI PUSH0 DUP1 REVERT JUMPDEST POP JUMP JUMPDEST PUSH0 DUP2 CALLDATALOAD SWAP1 POP PUSH2 0xBE0 DUP2 PUSH2 0xBBC JUMP JUMPDEST SWAP3 SWAP2 POP POP JUMP JUMPDEST PUSH0 DUP1 PUSH1 0x40 DUP4 DUP6 SUB SLT ISZERO PUSH2 0xBFC JUMPI PUSH2 0xBFB PUSH2 0xA11 JUMP JUMPDEST JUMPDEST PUSH0 PUSH2 0xC09 DUP6 DUP3 DUP7 ADD PUSH2 0xBD2 JUMP JUMPDEST SWAP3 POP POP PUSH1 0x20 DUP4 ADD CALLDATALOAD PUSH8 0xFFFFFFFFFFFFFFFF DUP2 GT ISZERO PUSH2 0xC2A JUMPI PUSH2 0xC29 PUSH2 0xA15 JUMP JUMPDEST JUMPDEST PUSH2 0xC36 DUP6 DUP3 DUP7 ADD PUSH2 0xB18 JUMP JUMPDEST SWAP2 POP POP SWAP3 POP SWAP3 SWAP1 POP JUMP JUMPDEST PUSH2 0xC49 DUP2 PUSH2 0x9D7 JUMP JUMPDEST DUP2 EQ PUSH2 0xC53 JUMPI PUSH0 DUP1 REVERT JUMPDEST POP JUMP JUMPDEST PUSH0 DUP2 CALLDATALOAD SWAP1 POP PUSH2 0xC64 DUP2 PUSH2 0xC40 JUMP JUMPDEST SWAP3 SWAP2 POP POP JUMP JUMPDEST PUSH0 DUP1 PUSH1 0x40 DUP4 DUP6 SUB SLT ISZERO PUSH2 0xC80 JUMPI PUSH2 0xC7F PUSH2 0xA11 JUMP JUMPDEST JUMPDEST PUSH0 PUSH2 0xC8D DUP6 DUP3 DUP7 ADD PUSH2 0xBD2 JUMP JUMPDEST SWAP3 POP POP PUSH1 0x20 PUSH2 0xC9E DUP6 DUP3 DUP7 ADD PUSH2 0xC56 JUMP JUMPDEST SWAP2 POP POP SWAP3 POP SWAP3 SWAP1 POP JUMP JUMPDEST PUSH0 DUP3 DUP3 MSTORE PUSH1 0x20 DUP3 ADD SWAP1 POP SWAP3 SWAP2 POP POP JUMP JUMPDEST PUSH0 PUSH2 0xCC2 DUP3 PUSH2 0x8B5 JUMP JUMPDEST PUSH2 0xCCC DUP2 DUP6 PUSH2 0xCA8 JUMP JUMPDEST SWAP4 POP PUSH2 0xCDC DUP2 DUP6 PUSH1 0x20 DUP7 ADD PUSH2 0x8CF JUMP JUMPDEST PUSH2 0xCE5 DUP2 PUSH2 0x8DD JUMP JUMPDEST DUP5 ADD SWAP2 POP POP SWAP3 SWAP2 POP POP JUMP JUMPDEST PUSH0 PUSH1 0x20 DUP3 ADD SWAP1 POP DUP2 DUP2 SUB PUSH0 DUP4 ADD MSTORE PUSH2 0xD08 DUP2 DUP5 PUSH2 0xCB8 JUMP JUMPDEST SWAP1 POP SWAP3 SWAP2 POP POP JUMP JUMPDEST PUSH0 DUP2 ISZERO ISZERO SWAP1 POP SWAP2 SWAP1 POP JUMP JUMPDEST PUSH2 0xD24 DUP2 PUSH2 0xD10 JUMP JUMPDEST DUP3 MSTORE POP POP JUMP JUMPDEST PUSH0 PUSH1 0x20 DUP3 ADD SWAP1 POP PUSH2 0xD3D PUSH0 DUP4 ADD DUP5 PUSH2 0xD1B JUMP JUMPDEST SWAP3 SWAP2 POP POP JUMP JUMPDEST PUSH0 PUSH1 0x20 DUP3 DUP5 SUB SLT ISZERO PUSH2 0xD58 JUMPI PUSH2 0xD57 PUSH2 0xA11 JUMP JUMPDEST JUMPDEST PUSH0 PUSH2 0xD65 DUP5 DUP3 DUP6 ADD PUSH2 0xBD2 JUMP JUMPDEST SWAP2 POP POP SWAP3 SWAP2 POP POP JUMP JUMPDEST PUSH2 0xD77 DUP2 PUSH2 0xD10 JUMP JUMPDEST DUP2 EQ PUSH2 0xD81 JUMPI PUSH0 DUP1 REVERT JUMPDEST POP JUMP JUMPDEST PUSH0 DUP2 CALLDATALOAD SWAP1 POP PUSH2 0xD92 DUP2 PUSH2 0xD6E JUMP JUMPDEST SWAP3 SWAP2 POP POP JUMP JUMPDEST PUSH0 PUSH1 0x20 DUP3 DUP5 SUB SLT ISZERO PUSH2 0xDAD JUMPI PUSH2 0xDAC PUSH2 0xA11 JUMP JUMPDEST JUMPDEST PUSH0 PUSH2 0xDBA DUP5 DUP3 DUP6 ADD PUSH2 0xD84 JUMP JUMPDEST SWAP2 POP POP SWAP3 SWAP2 POP POP JUMP JUMPDEST PUSH0 PUSH1 0x20 DUP3 DUP5 SUB SLT ISZERO PUSH2 0xDD8 JUMPI PUSH2 0xDD7 PUSH2 0xA11 JUMP JUMPDEST JUMPDEST PUSH0 PUSH2 0xDE5 DUP5 DUP3 DUP6 ADD PUSH2 0xC56 JUMP JUMPDEST SWAP2 POP POP SWAP3 SWAP2 POP POP JUMP JUMPDEST PUSH32 0x4E487B7100000000000000000000000000000000000000000000000000000000 PUSH0 MSTORE PUSH1 0x22 PUSH1 0x4 MSTORE PUSH1 0x24 PUSH0 REVERT JUMPDEST PUSH0 PUSH1 0x2 DUP3 DIV SWAP1 POP PUSH1 0x1 DUP3 AND DUP1 PUSH2 0xE32 JUMPI PUSH1 0x7F DUP3 AND SWAP2 POP JUMPDEST PUSH1 0x20 DUP3 LT DUP2 SUB PUSH2 0xE45 JUMPI PUSH2 0xE44 PUSH2 0xDEE JUMP JUMPDEST JUMPDEST POP SWAP2 SWAP1 POP JUMP JUMPDEST PUSH0 DUP2 SWAP1 POP DUP2 PUSH0 MSTORE PUSH1 0x20 PUSH0 KECCAK256 SWAP1 POP SWAP2 SWAP1 POP JUMP JUMPDEST PUSH0 PUSH1 0x20 PUSH1 0x1F DUP4 ADD DIV SWAP1 POP SWAP2 SWAP1 POP JUMP JUMPDEST PUSH0 DUP3 DUP3 SHL SWAP1 POP SWAP3 SWAP2 POP POP JUMP JUMPDEST PUSH0 PUSH1 0x8 DUP4 MUL PUSH2 0xEA7 PUSH32 0xFFFFFFFFFFFFFFFFFFFFFFFFFFFFFFFFFFFFFFFFFFFFFFFFFFFFFFFFFFFFFFFF DUP3 PUSH2 0xE6C JUMP JUMPDEST PUSH2 0xEB1 DUP7 DUP4 PUSH2 0xE6C JUMP JUMPDEST SWAP6 POP DUP1 NOT DUP5 AND SWAP4 POP DUP1 DUP7 AND DUP5 OR SWAP3 POP POP POP SWAP4 SWAP3 POP POP POP JUMP JUMPDEST PUSH0 DUP2 SWAP1 POP SWAP2 SWAP1 POP JUMP JUMPDEST PUSH0 PUSH2 0xEEC PUSH2 0xEE7 PUSH2 0xEE2 DUP5 PUSH2 0x9D7 JUMP JUMPDEST PUSH2 0xEC9 JUMP JUMPDEST PUSH2 0x9D7 JUMP JUMPDEST SWAP1 POP SWAP2 SWAP1 POP JUMP JUMPDEST PUSH0 DUP2 SWAP1 POP SWAP2 SWAP1 POP JUMP JUMPDEST PUSH2 0xF05 DUP4 PUSH2 0xED2 JUMP JUMPDEST PUSH2 0xF19 PUSH2 0xF11 DUP3 PUSH2 0xEF3 JUMP JUMPDEST DUP5 DUP5 SLOAD PUSH2 0xE78 JUMP JUMPDEST DUP3 SSTORE POP POP POP POP JUMP JUMPDEST PUSH0 SWAP1 JUMP JUMPDEST PUSH2 0xF2D PUSH2 0xF21 JUMP JUMPDEST PUSH2 0xF38 DUP2 DUP5 DUP5 PUSH2 0xEFC JUMP JUMPDEST POP POP POP JUMP JUMPDEST JUMPDEST DUP2 DUP2 LT ISZERO PUSH2 0xF5B JUMPI PUSH2 0xF50 PUSH0 DUP3 PUSH2 0xF25 JUMP JUMPDEST PUSH1 0x1 DUP2 ADD SWAP1 POP PUSH2 0xF3E JUMP JUMPDEST POP POP JUMP JUMPDEST PUSH1 0x1F DUP3 GT ISZERO PUSH2 0xFA0 JUMPI PUSH2 0xF71 DUP2 PUSH2 0xE4B JUMP JUMPDEST PUSH2 0xF7A DUP5 PUSH2 0xE5D JUMP JUMPDEST DUP2 ADD PUSH1 0x20 DUP6 LT ISZERO PUSH2 0xF89 JUMPI DUP2 SWAP1 POP JUMPDEST PUSH2 0xF9D PUSH2 0xF95 DUP6 PUSH2 0xE5D JUMP JUMPDEST DUP4 ADD DUP3 PUSH2 0xF3D JUMP JUMPDEST POP POP JUMPDEST POP POP POP JUMP JUMPDEST PUSH0 DUP3 DUP3 SHR SWAP1 POP SWAP3 SWAP2 POP POP JUMP JUMPDEST PUSH0 PUSH2 0xFC0 PUSH0 NOT DUP5 PUSH1 0x8 MUL PUSH2 0xFA5 JUMP JUMPDEST NOT DUP1 DUP4 AND SWAP2 POP POP SWAP3 SWAP2 POP POP JUMP JUMPDEST PUSH0 PUSH2 0xFD8 DUP4 DUP4 PUSH2 0xFB1 JUMP JUMPDEST SWAP2 POP DUP3 PUSH1 0x2 MUL DUP3 OR SWAP1 POP SWAP3 SWAP2 POP POP JUMP JUMPDEST PUSH2 0xFF1 DUP3 PUSH2 0x8B5 JUMP JUMPDEST PUSH8 0xFFFFFFFFFFFFFFFF DUP2 GT ISZERO PUSH2 0x100A JUMPI PUSH2 0x1009 PUSH2 0xA21 JUMP JUMPDEST JUMPDEST PUSH2 0x1014 DUP3 SLOAD PUSH2 0xE1B JUMP JUMPDEST PUSH2 0x101F DUP3 DUP3 DUP6 PUSH2 0xF5F JUMP JUMPDEST PUSH0 PUSH1 0x20 SWAP1 POP PUSH1 0x1F DUP4 GT PUSH1 0x1 DUP2 EQ PUSH2 0x1050 JUMPI PUSH0 DUP5 ISZERO PUSH2 0x103E JUMPI DUP3 DUP8 ADD MLOAD SWAP1 POP JUMPDEST PUSH2 0x1048 DUP6 DUP3 PUSH2 0xFCD JUMP JUMPDEST DUP7 SSTORE POP PUSH2 0x10AF JUMP JUMPDEST PUSH1 0x1F NOT DUP5 AND PUSH2 0x105E DUP7 PUSH2 0xE4B JUMP JUMPDEST PUSH0 JUMPDEST DUP3 DUP2 LT ISZERO PUSH2 0x1085 JUMPI DUP5 DUP10 ADD MLOAD DUP3 SSTORE PUSH1 0x1 DUP3 ADD SWAP2 POP PUSH1 0x20 DUP6 ADD SWAP5 POP PUSH1 0x20 DUP2 ADD SWAP1 POP PUSH2 0x1060 JUMP JUMPDEST DUP7 DUP4 LT ISZERO PUSH2 0x10A2 JUMPI DUP5 DUP10 ADD MLOAD PUSH2 0x109E PUSH1 0x1F DUP10 AND DUP3 PUSH2 0xFB1 JUMP JUMPDEST DUP4 SSTORE POP JUMPDEST PUSH1 0x1 PUSH1 0x2 DUP9 MUL ADD DUP9 SSTORE POP POP POP JUMPDEST POP POP POP POP POP POP JUMP JUMPDEST PUSH0 DUP2 SWAP1 POP SWAP3 SWAP2 POP POP JUMP JUMPDEST PUSH0 PUSH2 0x10CB DUP3 PUSH2 0x8B5 JUMP JUMPDEST PUSH2 0x10D5 DUP2 DUP6 PUSH2 0x10B7 JUMP JUMPDEST SWAP4 POP PUSH2 0x10E5 DUP2 DUP6 PUSH1 0x20 DUP7 ADD PUSH2 0x8CF JUMP JUMPDEST DUP1 DUP5 ADD SWAP2 POP POP SWAP3 SWAP2 POP POP JUMP JUMPDEST PUSH0 PUSH2 0x10FC DUP3 DUP5 PUSH2 0x10C1 JUMP JUMPDEST SWAP2 POP DUP2 SWAP1 POP SWAP3 SWAP2 POP POP JUMP JUMPDEST PUSH32 0x4E487B7100000000000000000000000000000000000000000000000000000000 PUSH0 MSTORE PUSH1 0x32 PUSH1 0x4 MSTORE PUSH1 0x24 PUSH0 REVERT JUMPDEST PUSH0 DUP2 SLOAD PUSH2 0x1140 DUP2 PUSH2 0xE1B JUMP JUMPDEST PUSH2 0x114A DUP2 DUP7 PUSH2 0x10B7 JUMP JUMPDEST SWAP5 POP PUSH1 0x1 DUP3 AND PUSH0 DUP2 EQ PUSH2 0x1164 JUMPI PUSH1 0x1 DUP2 EQ PUSH2 0x1179 JUMPI PUSH2 0x11AB JUMP JUMPDEST PUSH1 0xFF NOT DUP4 AND DUP7 MSTORE DUP2 ISZERO ISZERO DUP3 MUL DUP7 ADD SWAP4 POP PUSH2 0x11AB JUMP JUMPDEST PUSH2 0x1182 DUP6 PUSH2 0xE4B JUMP JUMPDEST PUSH0 JUMPDEST DUP4 DUP2 LT ISZERO PUSH2 0x11A3 JUMPI DUP2 SLOAD DUP2 DUP10 ADD MSTORE PUSH1 0x1 DUP3 ADD SWAP2 POP PUSH1 0x20 DUP2 ADD SWAP1 POP PUSH2 0x1184 JUMP JUMPDEST DUP4 DUP9 ADD SWAP6 POP POP POP JUMPDEST POP POP POP SWAP3 SWAP2 POP POP JUMP JUMPDEST PUSH0 PUSH2 0x11BF DUP3 DUP5 PUSH2 0x1134 JUMP JUMPDEST SWAP2 POP DUP2 SWAP1 POP SWAP3 SWAP2 POP POP JUMP JUMPDEST PUSH32 0x4974656D20646F6573206E6F7420657869737420696E20796F75722077697368 PUSH0 DUP3 ADD MSTORE PUSH32 0x206C6973742E0000000000000000000000000000000000000000000000000000 PUSH1 0x20 DUP3 ADD MSTORE POP JUMP JUMPDEST PUSH0 PUSH2 0x1224 PUSH1 0x26 DUP4 PUSH2 0xCA8 JUMP JUMPDEST SWAP2 POP PUSH2 0x122F DUP3 PUSH2 0x11CA JUMP JUMPDEST PUSH1 0x40 DUP3 ADD SWAP1 POP SWAP2 SWAP1 POP JUMP JUMPDEST PUSH0 PUSH1 0x20 DUP3 ADD SWAP1 POP DUP2 DUP2 SUB PUSH0 DUP4 ADD MSTORE PUSH2 0x1251 DUP2 PUSH2 0x1218 JUMP JUMPDEST SWAP1 POP SWAP2 SWAP1 POP JUMP JUMPDEST PUSH32 0x596F752063616E206F6E6C792064656C65746520796F7572206F776E20776973 PUSH0 DUP3 ADD MSTORE PUSH32 0x68206C6973742E00000000000000000000000000000000000000000000000000 PUSH1 0x20 DUP3 ADD MSTORE POP JUMP JUMPDEST PUSH0 PUSH2 0x12B2 PUSH1 0x27 DUP4 PUSH2 0xCA8 JUMP JUMPDEST SWAP2 POP PUSH2 0x12BD DUP3 PUSH2 0x1258 JUMP JUMPDEST PUSH1 0x40 DUP3 ADD SWAP1 POP SWAP2 SWAP1 POP JUMP JUMPDEST PUSH0 PUSH1 0x20 DUP3 ADD SWAP1 POP DUP2 DUP2 SUB PUSH0 DUP4 ADD MSTORE PUSH2 0x12DF DUP2 PUSH2 0x12A6 JUMP JUMPDEST SWAP1 POP SWAP2 SWAP1 POP JUMP INVALID LOG2 PUSH5 0x6970667358 0x22 SLT KECCAK256 0xB2 0x23 PUSH19 0x717BEA1A2AC2551FEE4A7E3E29014BF670BFF4 PUSH24 0x37DB75DDF4F8ED60AF64736F6C634300081A003300000000 "
		},
		"gasEstimates": {
			"creation": {
				"codeDepositCost": "978400",
				"executionCost": "1012",
				"totalCost": "979412"
			},
			"external": {
				"addItem(string)": "infinite",
				"deleteItem(address)": "infinite",
				"getWishList()": "infinite",
				"ispublic()": "2466",
				"owner()": "infinite",
				"shareItem(address,string)": "infinite",
				"toggleVisibility(bool)": "24739",
				"totalItems()": "2448",
				"userWishlist(address,uint256)": "infinite",
				"wishlist(uint256)": "infinite"
			}
		},
		"methodIdentifiers": {
			"addItem(string)": "27e9f294",
			"deleteItem(address)": "758db588",
			"getWishList()": "26e78669",
			"ispublic()": "473d7d28",
			"owner()": "8da5cb5b",
			"shareItem(address,string)": "3e3786db",
			"toggleVisibility(bool)": "c755624a",
			"totalItems()": "2799276d",
			"userWishlist(address,uint256)": "41c8a4a1",
			"wishlist(uint256)": "d37b5294"
		}
	},
	"abi": [
		{
			"inputs": [
				{
					"internalType": "string",
					"name": "item",
					"type": "string"
				}
			],
			"name": "addItem",
			"outputs": [],
			"stateMutability": "nonpayable",
			"type": "function"
		},
		{
			"inputs": [
				{
					"internalType": "address",
					"name": "list",
					"type": "address"
				}
			],
			"name": "deleteItem",
			"outputs": [],
			"stateMutability": "nonpayable",
			"type": "function"
		},
		{
			"inputs": [],
			"name": "getWishList",
			"outputs": [
				{
					"internalType": "string[]",
					"name": "",
					"type": "string[]"
				}
			],
			"stateMutability": "view",
			"type": "function"
		},
		{
			"inputs": [],
			"name": "ispublic",
			"outputs": [
				{
					"internalType": "bool",
					"name": "",
					"type": "bool"
				}
			],
			"stateMutability": "view",
			"type": "function"
		},
		{
			"inputs": [],
			"name": "owner",
			"outputs": [
				{
					"internalType": "string",
					"name": "",
					"type": "string"
				}
			],
			"stateMutability": "view",
			"type": "function"
		},
		{
			"inputs": [
				{
					"internalType": "address",
					"name": "recipient",
					"type": "address"
				},
				{
					"internalType": "string",
					"name": "item",
					"type": "string"
				}
			],
			"name": "shareItem",
			"outputs": [],
			"stateMutability": "nonpayable",
			"type": "function"
		},
		{
			"inputs": [
				{
					"internalType": "bool",
					"name": "status",
					"type": "bool"
				}
			],
			"name": "toggleVisibility",
			"outputs": [],
			"stateMutability": "nonpayable",
			"type": "function"
		},
		{
			"inputs": [],
			"name": "totalItems",
			"outputs": [
				{
					"internalType": "uint256",
					"name": "",
					"type": "uint256"
				}
			],
			"stateMutability": "view",
			"type": "function"
		},
		{
			"inputs": [
				{
					"internalType": "address",
					"name": "",
					"type": "address"
				},
				{
					"internalType": "uint256",
					"name": "",
					"type": "uint256"
				}
			],
			"name": "userWishlist",
			"outputs": [
				{
					"internalType": "string",
					"name": "",
					"type": "string"
				}
			],
			"stateMutability": "view",
			"type": "function"
		},
		{
			"inputs": [
				{
					"internalType": "uint256",
					"name": "",
					"type": "uint256"
				}
			],
			"name": "wishlist",
			"outputs": [
				{
					"internalType": "string",
					"name": "",
					"type": "string"
				}
			],
			"stateMutability": "view",
			"type": "function"
		}
	]
}